S00D00004C61625F332E7372656376
S11300000C945A000C9477000C9477000C947700AD
S11300100C9477000C9477000C9477000C94770080
S11300200C9477000C9477000C9477000C94770070
S11300300C9477000C9477000C9477000C94770060
S11300400C9477000C9477000C9477000C94770050
S11300500C9477000C9477000C9477000C94770040
S11300600C9477000C9477000C9477000C94770030
S11300700C9477000C9477000C9477000C94770020
S11300800C9477000C9477000C9477000C94770010
S11300900C9477000C9477000C9477000C94770000
S11300A00C9477000C9477000C9477000C947700F0
S11300B00C94770011241FBECFEFD8E0DEBFCDBF74
S11300C011E0A0E0B1E0E0EAF4E002C005900D9296
S11300D0A83DB107D9F721E0A8EDB1E001C01D9218
S11300E0A33EB207E1F70E941F020C944E020C9447
S11300F0000007E004B900E005B901B910E007E623
S11301001093C5000093C40008E10093C10006E009
S11301100093C20007E800937A0000E400937C0097
S113012000E000937B000EEF00937E000FEF00933E
S11301307F0008950E94D7000FEF0AB90091D801FB
S11301400BB904E005B90E94AC0000E005B90E94B7
S1130150AC000E94D10008950AEF1FEF1A95F1F741
S11301600A95D9F708950E94D7000FEF0AB90091B4
S1130170D8010BB906E005B90E94AC0000E005B94E
S11301800E94AC000E94D10008950E94D70000E0B4
S11301900AB945B80BB10093D80105B80E94D10043
S11301A0089502E00AB908E10093C100089500E04F
S11301B00093C10008950091C00007FF08950091C5
S11301C0C600F9CF0091C00007FFFCCF0091C60024
S11301D00093DA0108951091C00015FFFCCF00913F
S11301E0DA010093C600089507EC00937A000091A9
S11301F07A0006FDFCCF009178000093E0010091A5
S113020079000093D9010895F999FECF20E015E013
S113021006E422BD11BD00BDFA9AF99A0895F99930
S1130220FECF20E015E000E022BD11BDF89A00B534
S11302300093DA010895CF93DF93EC019881992319
S113024041F021969093DA010E94EB00999191116B
S1130250F9CFDF91CF9108958BEB91E00E941B01C0
S113026084E891E00E941B0189E591E00E941B0152
S1130270089583E691E00E941B010895CF93DF93D4
S1130280EC018881882339F08093D8010E94B3005F
S11302908A918111F9CFDF91CF9108950F931F9324
S11302A0CF93DF938C01FC018081882351F0E80116
S11302B021968E018093D8010E94B3008991811107
S11302C0F8CFC8010E943E01DF91CF911F910F9199
S11302D0089584E38093D8010E949A0088E0809373
S11302E0D8010E949A0082E08093D8010E949A006B
S11302F086E08093D8010E949A008FE08093D80111
S11303000E949A0080E091E00E944E010E94E20067
S11303108091DA018823B1F30895CF93DF93CBED75
S1130320D1E08EE2898380E28B831C820E94F400F8
S11303302091D90130E0322F22278091E001280F4B
S1130340311DC901880F991F220F331F220F331F3C
S1130350220F331F820F931FEEEFF7E0BF010E94BD
S11303602602262F30E3360F3883AC01440F551F85
S1130370880F991F880F991F880F991F840F951F45
S1130380BF010E94260230E3360F3A839093E201C4
S11303908093E1018F3F93401CF06F5C6093DD011B
S11303A08091DD018A3331F4EBEDF1E080E3828367
S11303B02F5C20838BED91E00E941B0183E391E08D
S11303C00E941B01DF91CF91089587E191E00E9483
S11303D01B0180E391E00E941B010E94040180E361
S11303E091E00E941B010E940F010E94EB0080E338
S11303F091E00E941B01089583E691E00E941B0195
S11304001092DA010E94E2008091DA018823D1F38C
S1130410853659F08C3619F0813651F403C00E94A8
S1130420690108950E948D0108950E94E5010895CF
S11304308AE391E00E941B010E94390108950E9401
S113044079000E942C010E94FC01FDCF97FB072E2E
S113045016F4009407D077FD09D00E943A0207FCF5
S113046005D03EF4909581959F4F089570956195C0
S11304707F4F0895AA1BBB1B51E107C0AA1FBB1FD6
S1130480A617B70710F0A61BB70B881F991F5A951C
S1130490A9F780959095BC01CD010895F894FFCFFC
S11304A057652061726520426172656C79205061E4
S11304B07373696E6721000D0A454550524F4D20F4
S11304C0577269746520616E6420526561642E0000
S11304D00D0A00566F6C74730D000D0A496E766137
S11304E06C696420436F6D6D616E64205472792071
S11304F0416761696E2E2E2E000D0A526561647982
S11305003A20000D0A4D656E753A20284C29434463
S11305102C2028412943442C202845294550524F5A
S11305204D0D0A000D0A627920457567656E6520D8
S1130530526F636B657920436F7079726967687471
S113054020323031382C20416C6C20526967687439
S113055073205265736572766564000D0A454345E0
S11305602D3431322041544D656761333238502087
S10B057054696E79204F530019
S9030000FC
